:030000000208846F
:0C088400787FE4F6D8FD758109020800B9
:10080000C2A0209028E4F508F509D2A07F0A7E0056
:10081000120864C2A07F0A7E001208640509E50977
:1008200070020508C394C8E508940040DD209128B3
:10083000E4F508F509D2A07F147E00120864C2A076
:100840007F057E001208640509E50970020508C3EA
:1008500094C8E508940040DD209202D2A02093A223
:04086000C2A0809E14
:10086400E4FDFCC3ED9FEC9E5015E4FBFA0BBB00CA
:0F087400010ABA01F8BB90F50DBD00010C80E43C
:010883002252
:00000001FF
